{
  "contractName": "KeyVaultFactory",
  "abi": [
    {
      "inputs": [
        {
          "internalType": "address",
          "name": "initialImpl",
          "type": "address"
        }
      ],
      "stateMutability": "nonpayable",
      "type": "constructor"
    },
    {
      "inputs": [],
      "name": "initialImplementation",
      "outputs": [
        {
          "internalType": "address",
          "name": "",
          "type": "address"
        }
      ],
      "stateMutability": "view",
      "type": "function"
    },
    {
      "inputs": [
        {
          "internalType": "address",
          "name": "",
          "type": "address"
        }
      ],
      "name": "keyVaults",
      "outputs": [
        {
          "internalType": "address",
          "name": "",
          "type": "address"
        }
      ],
      "stateMutability": "view",
      "type": "function"
    },
    {
      "inputs": [],
      "name": "create",
      "outputs": [],
      "stateMutability": "nonpayable",
      "type": "function"
    }
  ],
  "bytecode": "0x608060405234801561001057600080fd5b506040516104a63803806104a68339818101604052602081101561003357600080fd5b8101908080519060200190929190505050806000806101000a81548173ffffffffffffffffffffffffffffffffffffffff021916908373ffffffffffffffffffffffffffffffffffffffff16021790555050610412806100946000396000f3fe608060405234801561001057600080fd5b50600436106100415760003560e01c8063802b044014610046578063b7de9420146100b4578063efc81a8c146100e8575b600080fd5b6100886004803603602081101561005c57600080fd5b81019080803573ffffffffffffffffffffffffffffffffffffffff1690602001909291905050506100f2565b604051808273ffffffffffffffffffffffffffffffffffffffff16815260200191505060405180910390f35b6100bc610125565b604051808273ffffffffffffffffffffffffffffffffffffffff16815260200191505060405180910390f35b6100f0610149565b005b60016020528060005260406000206000915054906101000a900473ffffffffffffffffffffffffffffffffffffffff1681565b60008054906101000a900473ffffffffffffffffffffffffffffffffffffffff1681565b60008054906101000a900473ffffffffffffffffffffffffffffffffffffffff1660405161017690610232565b808273ffffffffffffffffffffffffffffffffffffffff168152602001915050604051809103906000f0801580156101b2573d6000803e3d6000fd5b50600160003373ffffffffffffffffffffffffffffffffffffffff1673ffffffffffffffffffffffffffffffffffffffff16815260200190815260200160002060006101000a81548173ffffffffffffffffffffffffffffffffffffffff021916908373ffffffffffffffffffffffffffffffffffffffff160217905550565b61019d806102408339019056fe608060405234801561001057600080fd5b5060405161019d38038061019d8339818101604052602081101561003357600080fd5b810190808051906020019092919050505080806000806101000a81548173ffffffffffffffffffffffffffffffffffffffff021916908373ffffffffffffffffffffffffffffffffffffffff1602179055505050610107806100966000396000f3fe6080604052348015600f57600080fd5b5060043610602b5760003560e01c80639e72370b14605557602c565b5b605360008054906101000a900473ffffffffffffffffffffffffffffffffffffffff166087565b005b605b60ad565b604051808273ffffffffffffffffffffffffffffffffffffffff16815260200191505060405180910390f35b60405136600082376000803683855af43d806000843e816000811460a9578184f35b8184fd5b60008054906101000a900473ffffffffffffffffffffffffffffffffffffffff168156fea2646970667358221220a3cbdc9ef6dec09f8942072baecc63a72f4c31a4c93880a30e256e5267282d2264736f6c634300060c0033a2646970667358221220b346f3ec8345827fc2872893de7359f98de6aaa250cebfa017042ce3ee0c6ac064736f6c634300060c0033",
  "source": "pragma solidity ^0.6.7;\n\nimport \"./KeyVaultProxy.sol\";\n\ncontract KeyVaultFactory {\n    address public initialImplementation;\n    // Owner to key vault implementation\n    mapping(address => address) public keyVaults;\n\n    constructor(address initialImpl) public {\n        initialImplementation = initialImpl;\n    }\n\n    function create() external {\n        keyVaults[msg.sender] = address(\n            new KeyVaultProxy(initialImplementation)\n        );\n    }\n}\n",
  "sourcePath": "/Users/lyubo/Projects/KEY_VAULT/contracts/contracts/KeyVaultFactory.sol",
  "compiler": {
    "name": "solc",
    "version": "0.6.12+commit.27d51765.Emscripten.clang",
    "optimizer": false,
    "runs": 200
  },
  "schemaVersion": "2.3.3",
  "updatedAt": "2020-09-28T12:38:11.033Z"
}